{
  "contractName": "POWNFT",
  "abi": [
    {
      "inputs": [],
      "stateMutability": "nonpayable",
      "type": "constructor"
    },
    {
      "inputs": [],
      "name": "ERC721EnumerableForbiddenBatchMint",
      "type": "error"
    },
    {
      "inputs": [
        {
          "internalType": "address",
          "name": "sender",
          "type": "address"
        },
        {
          "internalType": "uint256",
          "name": "tokenId",
          "type": "uint256"
        },
        {
          "internalType": "address",
          "name": "owner",
          "type": "address"
        }
      ],
      "name": "ERC721IncorrectOwner",
      "type": "error"
    },
    {
      "inputs": [
        {
          "internalType": "address",
          "name": "operator",
          "type": "address"
        },
        {
          "internalType": "uint256",
          "name": "tokenId",
          "type": "uint256"
        }
      ],
      "name": "ERC721InsufficientApproval",
      "type": "error"
    },
    {
      "inputs": [
        {
          "internalType": "address",
          "name": "approver",
          "type": "address"
        }
      ],
      "name": "ERC721InvalidApprover",
      "type": "error"
    },
    {
      "inputs": [
        {
          "internalType": "address",
          "name": "operator",
          "type": "address"
        }
      ],
      "name": "ERC721InvalidOperator",
      "type": "error"
    },
    {
      "inputs": [
        {
          "internalType": "address",
          "name": "owner",
          "type": "address"
        }
      ],
      "name": "ERC721InvalidOwner",
      "type": "error"
    },
    {
      "inputs": [
        {
          "internalType": "address",
          "name": "receiver",
          "type": "address"
        }
      ],
      "name": "ERC721InvalidReceiver",
      "type": "error"
    },
    {
      "inputs": [
        {
          "internalType": "address",
          "name": "sender",
          "type": "address"
        }
      ],
      "name": "ERC721InvalidSender",
      "type": "error"
    },
    {
      "inputs": [
        {
          "internalType": "uint256",
          "name": "tokenId",
          "type": "uint256"
        }
      ],
      "name": "ERC721NonexistentToken",
      "type": "error"
    },
    {
      "inputs": [
        {
          "internalType": "address",
          "name": "owner",
          "type": "address"
        },
        {
          "internalType": "uint256",
          "name": "index",
          "type": "uint256"
        }
      ],
      "name": "ERC721OutOfBoundsIndex",
      "type": "error"
    },
    {
      "anonymous": false,
      "inputs": [
        {
          "indexed": true,
          "internalType": "address",
          "name": "owner",
          "type": "address"
        },
        {
          "indexed": true,
          "internalType": "address",
          "name": "approved",
          "type": "address"
        },
        {
          "indexed": true,
          "internalType": "uint256",
          "name": "tokenId",
          "type": "uint256"
        }
      ],
      "name": "Approval",
      "type": "event"
    },
    {
      "anonymous": false,
      "inputs": [
        {
          "indexed": true,
          "internalType": "address",
          "name": "owner",
          "type": "address"
        },
        {
          "indexed": true,
          "internalType": "address",
          "name": "operator",
          "type": "address"
        },
        {
          "indexed": false,
          "internalType": "bool",
          "name": "approved",
          "type": "bool"
        }
      ],
      "name": "ApprovalForAll",
      "type": "event"
    },
    {
      "anonymous": false,
      "inputs": [
        {
          "indexed": true,
          "internalType": "uint256",
          "name": "_tokenId",
          "type": "uint256"
        },
        {
          "indexed": false,
          "internalType": "bytes32",
          "name": "hash",
          "type": "bytes32"
        }
      ],
      "name": "Mined",
      "type": "event"
    },
    {
      "anonymous": false,
      "inputs": [
        {
          "indexed": true,
          "internalType": "address",
          "name": "from",
          "type": "address"
        },
        {
          "indexed": true,
          "internalType": "address",
          "name": "to",
          "type": "address"
        },
        {
          "indexed": true,
          "internalType": "uint256",
          "name": "tokenId",
          "type": "uint256"
        }
      ],
      "name": "Transfer",
      "type": "event"
    },
    {
      "anonymous": false,
      "inputs": [
        {
          "indexed": true,
          "internalType": "uint256",
          "name": "_tokenId",
          "type": "uint256"
        },
        {
          "indexed": false,
          "internalType": "uint256",
          "name": "value",
          "type": "uint256"
        }
      ],
      "name": "Withdraw",
      "type": "event"
    },
    {
      "inputs": [
        {
          "internalType": "address",
          "name": "to",
          "type": "address"
        },
        {
          "internalType": "uint256",
          "name": "tokenId",
          "type": "uint256"
        }
      ],
      "name": "approve",
      "outputs": [],
      "stateMutability": "nonpayable",
      "type": "function"
    },
    {
      "inputs": [
        {
          "internalType": "address",
          "name": "owner",
          "type": "address"
        }
      ],
      "name": "balanceOf",
      "outputs": [
        {
          "internalType": "uint256",
          "name": "",
          "type": "uint256"
        }
      ],
      "stateMutability": "view",
      "type": "function"
    },
    {
      "inputs": [
        {
          "internalType": "uint256",
          "name": "tokenId",
          "type": "uint256"
        }
      ],
      "name": "getApproved",
      "outputs": [
        {
          "internalType": "address",
          "name": "",
          "type": "address"
        }
      ],
      "stateMutability": "view",
      "type": "function"
    },
    {
      "inputs": [
        {
          "internalType": "address",
          "name": "owner",
          "type": "address"
        },
        {
          "internalType": "address",
          "name": "operator",
          "type": "address"
        }
      ],
      "name": "isApprovedForAll",
      "outputs": [
        {
          "internalType": "bool",
          "name": "",
          "type": "bool"
        }
      ],
      "stateMutability": "view",
      "type": "function"
    },
    {
      "inputs": [],
      "name": "name",
      "outputs": [
        {
          "internalType": "string",
          "name": "",
          "type": "string"
        }
      ],
      "stateMutability": "view",
      "type": "function"
    },
    {
      "inputs": [
        {
          "internalType": "uint256",
          "name": "tokenId",
          "type": "uint256"
        }
      ],
      "name": "ownerOf",
      "outputs": [
        {
          "internalType": "address",
          "name": "",
          "type": "address"
        }
      ],
      "stateMutability": "view",
      "type": "function"
    },
    {
      "inputs": [
        {
          "internalType": "address",
          "name": "from",
          "type": "address"
        },
        {
          "internalType": "address",
          "name": "to",
          "type": "address"
        },
        {
          "internalType": "uint256",
          "name": "tokenId",
          "type": "uint256"
        }
      ],
      "name": "safeTransferFrom",
      "outputs": [],
      "stateMutability": "nonpayable",
      "type": "function"
    },
    {
      "inputs": [
        {
          "internalType": "address",
          "name": "from",
          "type": "address"
        },
        {
          "internalType": "address",
          "name": "to",
          "type": "address"
        },
        {
          "internalType": "uint256",
          "name": "tokenId",
          "type": "uint256"
        },
        {
          "internalType": "bytes",
          "name": "data",
          "type": "bytes"
        }
      ],
      "name": "safeTransferFrom",
      "outputs": [],
      "stateMutability": "nonpayable",
      "type": "function"
    },
    {
      "inputs": [
        {
          "internalType": "address",
          "name": "operator",
          "type": "address"
        },
        {
          "internalType": "bool",
          "name": "approved",
          "type": "bool"
        }
      ],
      "name": "setApprovalForAll",
      "outputs": [],
      "stateMutability": "nonpayable",
      "type": "function"
    },
    {
      "inputs": [
        {
          "internalType": "bytes4",
          "name": "interfaceId",
          "type": "bytes4"
        }
      ],
      "name": "supportsInterface",
      "outputs": [
        {
          "internalType": "bool",
          "name": "",
          "type": "bool"
        }
      ],
      "stateMutability": "view",
      "type": "function"
    },
    {
      "inputs": [],
      "name": "symbol",
      "outputs": [
        {
          "internalType": "string",
          "name": "",
          "type": "string"
        }
      ],
      "stateMutability": "view",
      "type": "function"
    },
    {
      "inputs": [
        {
          "internalType": "uint256",
          "name": "index",
          "type": "uint256"
        }
      ],
      "name": "tokenByIndex",
      "outputs": [
        {
          "internalType": "uint256",
          "name": "",
          "type": "uint256"
        }
      ],
      "stateMutability": "view",
      "type": "function"
    },
    {
      "inputs": [
        {
          "internalType": "address",
          "name": "owner",
          "type": "address"
        },
        {
          "internalType": "uint256",
          "name": "index",
          "type": "uint256"
        }
      ],
      "name": "tokenOfOwnerByIndex",
      "outputs": [
        {
          "internalType": "uint256",
          "name": "",
          "type": "uint256"
        }
      ],
      "stateMutability": "view",
      "type": "function"
    },
    {
      "inputs": [
        {
          "internalType": "uint256",
          "name": "tokenId",
          "type": "uint256"
        }
      ],
      "name": "tokenURI",
      "outputs": [
        {
          "internalType": "string",
          "name": "",
          "type": "string"
        }
      ],
      "stateMutability": "view",
      "type": "function"
    },
    {
      "inputs": [],
      "name": "totalSupply",
      "outputs": [
        {
          "internalType": "uint256",
          "name": "",
          "type": "uint256"
        }
      ],
      "stateMutability": "view",
      "type": "function"
    },
    {
      "inputs": [
        {
          "internalType": "address",
          "name": "from",
          "type": "address"
        },
        {
          "internalType": "address",
          "name": "to",
          "type": "address"
        },
        {
          "internalType": "uint256",
          "name": "tokenId",
          "type": "uint256"
        }
      ],
      "name": "transferFrom",
      "outputs": [],
      "stateMutability": "nonpayable",
      "type": "function"
    },
    {
      "inputs": [],
      "name": "getTokensMinedThisHour",
      "outputs": [
        {
          "internalType": "uint256",
          "name": "",
          "type": "uint256"
        }
      ],
      "stateMutability": "view",
      "type": "function"
    },
    {
      "inputs": [
        {
          "internalType": "uint256",
          "name": "_tokenId",
          "type": "uint256"
        }
      ],
      "name": "hashOf",
      "outputs": [
        {
          "internalType": "bytes32",
          "name": "",
          "type": "bytes32"
        }
      ],
      "stateMutability": "view",
      "type": "function"
    },
    {
      "inputs": [
        {
          "internalType": "uint256",
          "name": "nonce",
          "type": "uint256"
        }
      ],
      "name": "mine",
      "outputs": [],
      "stateMutability": "payable",
      "type": "function"
    },
    {
      "inputs": [
        {
          "internalType": "uint256",
          "name": "_tokenId",
          "type": "uint256"
        },
        {
          "internalType": "uint256",
          "name": "_withdrawUntil",
          "type": "uint256"
        }
      ],
      "name": "withdraw",
      "outputs": [],
      "stateMutability": "nonpayable",
      "type": "function"
    },
    {
      "inputs": [
        {
          "internalType": "uint256[]",
          "name": "_tokenIds",
          "type": "uint256[]"
        },
        {
          "internalType": "uint256[]",
          "name": "_withdrawUntil",
          "type": "uint256[]"
        }
      ],
      "name": "withdrawMultiple",
      "outputs": [],
      "stateMutability": "nonpayable",
      "type": "function"
    }
  ],
  "bytecode": "0x60806040526528ed6103d000600a5561012c7fffffffffffffffffffffffffffffffffffffffffffffffffffffffffffffffff6200003e919062000dd1565b600b556003600c5534801562000052575f80fd5b506040518060400160405280600781526020017f504f57204e4654000000000000000000000000000000000000000000000000008152506040518060400160405280600381526020017f504f570000000000000000000000000000000000000000000000000000000000815250815f9081620000cf919062001063565b508060019081620000e1919062001063565b50505042600d819055505f600e819055506200010760015f801b6200010d60201b60201c565b62001290565b6200012033835f6200014b60201b60201c565b50600f81908060018154018082558091505060019003905f5260205f20015f90919091909150555050565b5f80620001608585856200029360201b60201c565b90505f73ffffffffffffffffffffffffffffffffffffffff168173ffffffffffffffffffffffffffffffffffffffff1603620001ad57620001a784620004b960201b60201c565b620001f5565b8473ffffffffffffffffffffffffffffffffffffffff168173ffffffffffffffffffffffffffffffffffffffff1614620001f457620001f38185620004fd60201b60201c565b5b5b5f73ffffffffffffffffffffffffffffffffffffffff168573ffffffffffffffffffffffffffffffffffffffff160362000240576200023a846200065060201b60201c565b62000288565b8473ffffffffffffffffffffffffffffffffffffffff168173ffffffffffffffffffffffffffffffffffffffff161462000287576200028685856200071b60201b60201c565b5b5b809150509392505050565b5f80620002a684620007a960201b60201c565b90505f73ffffffffffffffffffffffffffffffffffffffff168373ffffffffffffffffffffffffffffffffffffffff1614620002f057620002ef818486620007e260201b60201c565b5b5f73ffffffffffffffffffffffffffffffffffffffff168173ffffffffffffffffffffffffffffffffffffffff16146200038457620003385f855f80620008b360201b60201c565b600160035f8373ffffffffffffffffffffffffffffffffffffffff1673ffffffffffffffffffffffffffffffffffffffff1681526020019081526020015f205f82825403925050819055505b5f73ffffffffffffffffffffffffffffffffffffffff168573ffffffffffffffffffffffffffffffffffffffff16146200040457600160035f8773ffffffffffffffffffffffffffffffffffffffff1673ffffffffffffffffffffffffffffffffffffffff1681526020019081526020015f205f82825401925050819055505b8460025f8681526020019081526020015f205f6101000a81548173ffffffffffffffffffffffffffffffffffffffff021916908373ffffffffffffffffffffffffffffffffffffffff160217905550838573ffffffffffffffffffffffffffffffffffffffff168273ffffffffffffffffffffffffffffffffffffffff167fddf252ad1be2c89b69c2b068fc378daa952ba7f163c4a11628f55a4df523b3ef60405160405180910390a4809150509392505050565b60088054905060095f8381526020019081526020015f2081905550600881908060018154018082558091505060019003905f5260205f20015f909190919091505550565b5f6200050f8362000a8a60201b60201c565b90505f60075f8481526020019081526020015f20549050818114620005e7575f60065f8673ffffffffffffffffffffffffffffffffffffffff1673ffffffffffffffffffffffffffffffffffffffff1681526020019081526020015f205f8481526020019081526020015f205490508060065f8773ffffffffffffffffffffffffffffffffffffffff1673ffffffffffffffffffffffffffffffffffffffff1681526020019081526020015f205f8481526020019081526020015f20819055508160075f8381526020019081526020015f2081905550505b60075f8481526020019081526020015f205f905560065f8573ffffffffffffffffffffffffffffffffffffffff1673ffffffffffffffffffffffffffffffffffffffff1681526020019081526020015f205f8381526020019081526020015f205f905550505050565b5f600160088054905062000665919062001147565b90505f60095f8481526020019081526020015f205490505f6008838154811062000694576200069362001181565b5b905f5260205f20015490508060088381548110620006b757620006b662001181565b5b905f5260205f2001819055508160095f8381526020019081526020015f208190555060095f8581526020019081526020015f205f90556008805480620007025762000701620011ae565b5b600190038181905f5260205f20015f9055905550505050565b5f60016200072f8462000a8a60201b60201c565b6200073b919062001147565b90508160065f8573ffffffffffffffffffffffffffffffffffffffff1673ffffffffffffffffffffffffffffffffffffffff1681526020019081526020015f205f8381526020019081526020015f20819055508060075f8481526020019081526020015f2081905550505050565b5f60025f8381526020019081526020015f205f9054906101000a900473ffffffffffffffffffffffffffffffffffffffff169050919050565b620007f583838362000b4360201b60201c565b620008ae575f73ffffffffffffffffffffffffffffffffffffffff168373ffffffffffffffffffffffffffffffffffffffff16036200086d57806040517f7e273289000000000000000000000000000000000000000000000000000000008152600401620008649190620011ec565b60405180910390fd5b81816040517f177e802f000000000000000000000000000000000000000000000000000000008152600401620008a59291906200124a565b60405180910390fd5b505050565b8080620008ec57505f73ffffffffffffffffffffffffffffffffffffffff168273ffffffffffffffffffffffffffffffffffffffff1614155b1562000a35575f620009048462000c1660201b60201c565b90505f73ffffffffffffffffffffffffffffffffffffffff168373ffffffffffffffffffffffffffffffffffffffff16141580156200096f57508273ffffffffffffffffffffffffffffffffffffffff168173ffffffffffffffffffffffffffffffffffffffff1614155b80156200098b575062000989818462000ca760201b60201c565b155b15620009d057826040517fa9fbf51f000000000000000000000000000000000000000000000000000000008152600401620009c7919062001275565b60405180910390fd5b811562000a3357838573ffffffffffffffffffffffffffffffffffffffff168273ffffffffffffffffffffffffffffffffffffffff167f8c5be1e5ebec7d5bd14f71427d1e84f3dd0314c0f7b2291e5b200ac8c7c3b92560405160405180910390a45b505b8360045f8581526020019081526020015f205f6101000a81548173ffffffffffffffffffffffffffffffffffffffff021916908373ffffffffffffffffffffffffffffffffffffffff16021790555050505050565b5f8073ffffffffffffffffffffffffffffffffffffffff168273ffffffffffffffffffffffffffffffffffffffff160362000afe575f6040517f89c62b6400000000000000000000000000000000000000000000000000000000815260040162000af5919062001275565b60405180910390fd5b60035f8373ffffffffffffffffffffffffffffffffffffffff1673ffffffffffffffffffffffffffffffffffffffff1681526020019081526020015f20549050919050565b5f8073ffffffffffffffffffffffffffffffffffffffff168373ffffffffffffffffffffffffffffffffffffffff161415801562000c0d57508273ffffffffffffffffffffffffffffffffffffffff168473ffffffffffffffffffffffffffffffffffffffff16148062000bc5575062000bc4848462000ca760201b60201c565b5b8062000c0c57508273ffffffffffffffffffffffffffffffffffffffff1662000bf48362000d3560201b60201c565b73ffffffffffffffffffffffffffffffffffffffff16145b5b90509392505050565b5f8062000c2983620007a960201b60201c565b90505f73ffffffffffffffffffffffffffffffffffffffff168173ffffffffffffffffffffffffffffffffffffffff160362000c9e57826040517f7e27328900000000000000000000000000000000000000000000000000000000815260040162000c959190620011ec565b60405180910390fd5b80915050919050565b5f60055f8473ffffffffffffffffffffffffffffffffffffffff1673ffffffffffffffffffffffffffffffffffffffff1681526020019081526020015f205f8373ffffffffffffffffffffffffffffffffffffffff1673ffffffffffffffffffffffffffffffffffffffff1681526020019081526020015f205f9054906101000a900460ff16905092915050565b5f60045f8381526020019081526020015f205f9054906101000a900473ffffffffffffffffffffffffffffffffffffffff169050919050565b5f819050919050565b7f4e487b71000000000000000000000000000000000000000000000000000000005f52601260045260245ffd5b7f4e487b71000000000000000000000000000000000000000000000000000000005f52601160045260245ffd5b5f62000ddd8262000d6e565b915062000dea8362000d6e565b92508262000dfd5762000dfc62000d77565b5b828204905092915050565b5f81519050919050565b7f4e487b71000000000000000000000000000000000000000000000000000000005f52604160045260245ffd5b7f4e487b71000000000000000000000000000000000000000000000000000000005f52602260045260245ffd5b5f600282049050600182168062000e8457607f821691505b60208210810362000e9a5762000e9962000e3f565b5b50919050565b5f819050815f5260205f209050919050565b5f6020601f8301049050919050565b5f82821b905092915050565b5f6008830262000efe7fffffffffffffffffffffffffffffffffffffffffffffffffffffffffffffffff8262000ec1565b62000f0a868362000ec1565b95508019841693508086168417925050509392505050565b5f819050919050565b5f62000f4b62000f4562000f3f8462000d6e565b62000f22565b62000d6e565b9050919050565b5f819050919050565b62000f668362000f2b565b62000f7e62000f758262000f52565b84845462000ecd565b825550505050565b5f90565b62000f9462000f86565b62000fa181848462000f5b565b505050565b5b8181101562000fc85762000fbc5f8262000f8a565b60018101905062000fa7565b5050565b601f821115620010175762000fe18162000ea0565b62000fec8462000eb2565b8101602085101562000ffc578190505b620010146200100b8562000eb2565b83018262000fa6565b50505b505050565b5f82821c905092915050565b5f620010395f19846008026200101c565b1980831691505092915050565b5f62001053838362001028565b9150826002028217905092915050565b6200106e8262000e08565b67ffffffffffffffff8111156200108a576200108962000e12565b5b62001096825462000e6c565b620010a382828562000fcc565b5f60209050601f831160018114620010d9575f8415620010c4578287015190505b620010d0858262001046565b8655506200113f565b601f198416620010e98662000ea0565b5f5b828110156200111257848901518255600182019150602085019450602081019050620010eb565b868310156200113257848901516200112e601f89168262001028565b8355505b6001600288020188555050505b505050505050565b5f620011538262000d6e565b9150620011608362000d6e565b92508282039050818111156200117b576200117a62000da4565b5b92915050565b7f4e487b71000000000000000000000000000000000000000000000000000000005f52603260045260245ffd5b7f4e487b71000000000000000000000000000000000000000000000000000000005f52603160045260245ffd5b620011e68162000d6e565b82525050565b5f602082019050620012015f830184620011db565b92915050565b5f73ffffffffffffffffffffffffffffffffffffffff82169050919050565b5f620012328262001207565b9050919050565b620012448162001226565b82525050565b5f6040820190506200125f5f83018562001239565b6200126e6020830184620011db565b9392505050565b5f6020820190506200128a5f83018462001239565b92915050565b61340e806200129e5f395ff3fe608060405260043610610169575f3560e01c80634d474898116100ca57806395d89b411161007e578063b88d4fde11610058578063b88d4fde146104c5578063c87b56dd146104ed578063e985e9c51461052957610169565b806395d89b411461044b5780639d11053014610475578063a22cb4651461049d57610169565b80636352211e116100af5780636352211e1461039757806370a08231146103d35780637e551b751461040f57610169565b80634d4748981461033f5780634f6ccce71461035b57610169565b806323b872dd116101215780632f745c59116101065780632f745c59146102b357806342842e0e146102ef578063441a3e701461031757610169565b806323b872dd146102615780632c591c2b1461028957610169565b8063081812fc11610152578063081812fc146101d3578063095ea7b31461020f57806318160ddd1461023757610169565b806301ffc9a71461016d57806306fdde03146101a9575b5f80fd5b348015610178575f80fd5b50610193600480360381019061018e9190612452565b610565565b6040516101a09190612497565b60405180910390f35b3480156101b4575f80fd5b506101bd6105de565b6040516101ca919061253a565b60405180910390f35b3480156101de575f80fd5b506101f960048036038101906101f4919061258d565b61066d565b60405161020691906125f7565b60405180910390f35b34801561021a575f80fd5b506102356004803603810190610230919061263a565b610688565b005b348015610242575f80fd5b5061024b61069e565b6040516102589190612687565b60405180910390f35b34801561026c575f80fd5b50610287600480360381019061028291906126a0565b6106aa565b005b348015610294575f80fd5b5061029d6107a9565b6040516102aa9190612687565b60405180910390f35b3480156102be575f80fd5b506102d960048036038101906102d4919061263a565b6107b2565b6040516102e69190612687565b60405180910390f35b3480156102fa575f80fd5b50610315600480360381019061031091906126a0565b610856565b005b348015610322575f80fd5b5061033d600480360381019061033891906126f0565b610875565b005b6103596004803603810190610354919061258d565b6108c6565b005b348015610366575f80fd5b50610381600480360381019061037c919061258d565b610b29565b60405161038e9190612687565b60405180910390f35b3480156103a2575f80fd5b506103bd60048036038101906103b8919061258d565b610b9b565b6040516103ca91906125f7565b60405180910390f35b3480156103de575f80fd5b506103f960048036038101906103f4919061272e565b610bac565b6040516104069190612687565b60405180910390f35b34801561041a575f80fd5b506104356004803603810190610430919061258d565b610c62565b6040516104429190612771565b60405180910390f35b348015610456575f80fd5b5061045f610cdb565b60405161046c919061253a565b60405180910390f35b348015610480575f80fd5b5061049b600480360381019061049691906127eb565b610d6b565b005b3480156104a8575f80fd5b506104c360048036038101906104be9190612893565b610e3d565b005b3480156104d0575f80fd5b506104eb60048036038101906104e691906129f9565b610e53565b005b3480156104f8575f80fd5b50610513600480360381019061050e919061258d565b610e70565b604051610520919061253a565b60405180910390f35b348015610534575f80fd5b5061054f600480360381019061054a9190612a79565b610ed6565b60405161055c9190612497565b60405180910390f35b5f7f780e9d63000000000000000000000000000000000000000000000000000000007bffffffffffffffffffffffffffffffffffffffffffffffffffffffff1916827bffffffffffffffffffffffffffffffffffffffffffffffffffffffff191614806105d757506105d682610f64565b5b9050919050565b60605f80546105ec90612ae4565b80601f016020809104026020016040519081016040528092919081815260200182805461061890612ae4565b80156106635780601f1061063a57610100808354040283529160200191610663565b820191905f5260205f20905b81548152906001019060200180831161064657829003601f168201915b5050505050905090565b5f61067782611045565b50610681826110cb565b9050919050565b61069a8282610695611104565b61110b565b5050565b5f600880549050905090565b5f73ffffffffffffffffffffffffffffffffffffffff168273ffffffffffffffffffffffffffffffffffffffff160361071a575f6040517f64a0ae9200000000000000000000000000000000000000000000000000000000815260040161071191906125f7565b60405180910390fd5b5f61072d8383610728611104565b61111d565b90508373ffffffffffffffffffffffffffffffffffffffff168173ffffffffffffffffffffffffffffffffffffffff16146107a3578382826040517f64283d7b00000000000000000000000000000000000000000000000000000000815260040161079a93929190612b14565b60405180910390fd5b50505050565b5f600e54905090565b5f6107bc83610bac565b82106108015782826040517fa57d13dc0000000000000000000000000000000000000000000000000000000081526004016107f8929190612b49565b60405180910390fd5b60065f8473ffffffffffffffffffffffffffffffffffffffff1673ffffffffffffffffffffffffffffffffffffffff1681526020019081526020015f205f8381526020019081526020015f2054905092915050565b61087083838360405180602001604052805f815250610e53565b505050565b3373ffffffffffffffffffffffffffffffffffffffff166108fc6108998484611237565b90811502906040515f60405180830381858888f193505050501580156108c1573d5f803e3d5ffd5b505050565b5f6001600f805490506108d99190612b9d565b90505f6108e582611463565b90505f610e10600d54426108f99190612bd0565b109050801561091e576064600e54111561091d5760058261091a9190612b9d565b91505b5b5f82600c5461092d9190612d32565b600b5461093a9190612da9565b9050600d83111561096d576001614000856109559190612bd0565b61095f9190612b9d565b8161096a9190612da9565b90505b5f600a5460018560026109809190612d32565b61098a9190612bd0565b6109949190612dd9565b90505f33600f6002886109a79190612bd0565b815481106109b8576109b7612e1a565b5b905f5260205f200154886040516020016109d493929190612ecc565b604051602081830303815290604052805190602001209050825f1b8110610a30576040517f08c379a0000000000000000000000000000000000000000000000000000000008152600401610a2790612f52565b60405180910390fd5b610a39346114a3565b610a42826114a3565b81341015610a85576040517f08c379a0000000000000000000000000000000000000000000000000000000008152600401610a7c90612fba565b60405180910390fd5b8315610aa757600e5f815480929190610a9d90612fd8565b9190505550610ab6565b42600d819055505f600e819055505b610ae8868242604051602001610acd92919061301f565b6040516020818303038152906040528051906020012061153c565b857f5570ed3da2dab8635dcc918badc12e05d60cbc9185347ef0065ab7335568cdae82604051610b189190612771565b60405180910390a250505050505050565b5f610b3261069e565b8210610b77575f826040517fa57d13dc000000000000000000000000000000000000000000000000000000008152600401610b6e929190612b49565b60405180910390fd5b60088281548110610b8b57610b8a612e1a565b5b905f5260205f2001549050919050565b5f610ba582611045565b9050919050565b5f8073ffffffffffffffffffffffffffffffffffffffff168273ffffffffffffffffffffffffffffffffffffffff1603610c1d575f6040517f89c62b64000000000000000000000000000000000000000000000000000000008152600401610c1491906125f7565b60405180910390fd5b60035f8373ffffffffffffffffffffffffffffffffffffffff1673ffffffffffffffffffffffffffffffffffffffff1681526020019081526020015f20549050919050565b5f610c6c82611572565b610cab576040517f08c379a0000000000000000000000000000000000000000000000000000000008152600401610ca290613094565b60405180910390fd5b600f600183610cba9190612bd0565b81548110610ccb57610cca612e1a565b5b905f5260205f2001549050919050565b606060018054610cea90612ae4565b80601f0160208091040260200160405190810160405280929190818152602001828054610d1690612ae4565b8015610d615780601f10610d3857610100808354040283529160200191610d61565b820191905f5260205f20905b815481529060010190602001808311610d4457829003601f168201915b5050505050905090565b5f805b85859050811015610df1575f848483818110610d8d57610d8c612e1a565b5b905060200201351115610de457610dd6868683818110610db057610daf612e1a565b5b90506020020135858584818110610dca57610dc9612e1a565b5b90506020020135611237565b82610de19190612b9d565b91505b8080600101915050610d6e565b503373ffffffffffffffffffffffffffffffffffffffff166108fc8290811502906040515f60405180830381858888f19350505050158015610e35573d5f803e3d5ffd5b505050505050565b610e4f610e48611104565b83836115b2565b5050565b610e5e8484846106aa565b610e6a8484848461171b565b50505050565b6060610e7b82611045565b505f610e856118cd565b90505f815111610ea35760405180602001604052805f815250610ece565b80610ead846118ed565b604051602001610ebe9291906130ec565b6040516020818303038152906040525b915050919050565b5f60055f8473ffffffffffffffffffffffffffffffffffffffff1673ffffffffffffffffffffffffffffffffffffffff1681526020019081526020015f205f8373ffffffffffffffffffffffffffffffffffffffff1673ffffffffffffffffffffffffffffffffffffffff1681526020019081526020015f205f9054906101000a900460ff16905092915050565b5f7f80ac58cd000000000000000000000000000000000000000000000000000000007bffffffffffffffffffffffffffffffffffffffffffffffffffffffff1916827bffffffffffffffffffffffffffffffffffffffffffffffffffffffff1916148061102e57507f5b5e139f000000000000000000000000000000000000000000000000000000007bffffffffffffffffffffffffffffffffffffffffffffffffffffffff1916827bffffffffffffffffffffffffffffffffffffffffffffffffffffffff1916145b8061103e575061103d826119b7565b5b9050919050565b5f8061105083611a20565b90505f73ffffffffffffffffffffffffffffffffffffffff168173ffffffffffffffffffffffffffffffffffffffff16036110c257826040517f7e2732890000000000000000000000000000000000000000000000000000000081526004016110b99190612687565b60405180910390fd5b80915050919050565b5f60045f8381526020019081526020015f205f9054906101000a900473ffffffffffffffffffffffffffffffffffffffff169050919050565b5f33905090565b6111188383836001611a59565b505050565b5f8061112a858585611c18565b90505f73ffffffffffffffffffffffffffffffffffffffff168173ffffffffffffffffffffffffffffffffffffffff160361116d5761116884611e23565b6111ac565b8473ffffffffffffffffffffffffffffffffffffffff168173ffffffffffffffffffffffffffffffffffffffff16146111ab576111aa8185611e67565b5b5b5f73ffffffffffffffffffffffffffffffffffffffff168573ffffffffffffffffffffffffffffffffffffffff16036111ed576111e884611fb1565b61122c565b8473ffffffffffffffffffffffffffffffffffffffff168173ffffffffffffffffffffffffffffffffffffffff161461122b5761122a8585612071565b5b5b809150509392505050565b5f61124182611572565b611280576040517f08c379a000000000000000000000000000000000000000000000000000000000815260040161127790613159565b60405180910390fd5b3373ffffffffffffffffffffffffffffffffffffffff166112a084610b9b565b73ffffffffffffffffffffffffffffffffffffffff16146112f6576040517f08c379a00000000000000000000000000000000000000000000000000000000081526004016112ed906131c1565b60405180910390fd5b60105f8481526020019081526020015f20548211611349576040517f08c379a000000000000000000000000000000000000000000000000000000000815260040161134090613229565b60405180910390fd5b5f61135384611463565b90505f6001826113639190612b9d565b600261136f9190612d32565b90505f60105f8781526020019081526020015f20549050858110156113aa57859050818110156113a9576001826113a69190612bd0565b90505b5b8085116113ec576040517f08c379a00000000000000000000000000000000000000000000000000000000081526004016113e390613291565b60405180910390fd5b5f81866113f99190612bd0565b600a546114069190612dd9565b90508560105f8981526020019081526020015f2081905550867f56ca301a9219608c91e7bcee90e083c19671d2cdcc96752c7af291cee5f9c8c88260405161144e9190612687565b60405180910390a28094505050505092915050565b5f5b5f82111561148f5760028261147a9190612da9565b9150808061148790612fd8565b915050611465565b60018161149c9190612bd0565b9050919050565b611539816040516024016114b79190612687565b6040516020818303038152906040527ff82c50f1000000000000000000000000000000000000000000000000000000007bffffffffffffffffffffffffffffffffffffffffffffffffffffffff19166020820180517bffffffffffffffffffffffffffffffffffffffffffffffffffffffff83818316178352505050506120f5565b50565b61154733835f61111d565b50600f81908060018154018082558091505060019003905f5260205f20015f90919091909150555050565b5f8073ffffffffffffffffffffffffffffffffffffffff1661159383610b9b565b73ffffffffffffffffffffffffffffffffffffffff1614159050919050565b5f73ffffffffffffffffffffffffffffffffffffffff168273ffffffffffffffffffffffffffffffffffffffff160361162257816040517f5b08ba1800000000000000000000000000000000000000000000000000000000815260040161161991906125f7565b60405180910390fd5b8060055f8573ffffffffffffffffffffffffffffffffffffffff1673ffffffffffffffffffffffffffffffffffffffff1681526020019081526020015f205f8473ffffffffffffffffffffffffffffffffffffffff1673ffffffffffffffffffffffffffffffffffffffff1681526020019081526020015f205f6101000a81548160ff0219169083151502179055508173ffffffffffffffffffffffffffffffffffffffff168373ffffffffffffffffffffffffffffffffffffffff167f17307eab39ab6107e8899845ad3d59bd9653f200f220920489ca2b5937696c318360405161170e9190612497565b60405180910390a3505050565b5f8373ffffffffffffffffffffffffffffffffffffffff163b11156118c7578273ffffffffffffffffffffffffffffffffffffffff1663150b7a0261175e611104565b8685856040518563ffffffff1660e01b81526004016117809493929190613301565b6020604051808303815f875af19250505080156117bb57506040513d601f19601f820116820180604052508101906117b8919061335f565b60015b61183c573d805f81146117e9576040519150601f19603f3d011682016040523d82523d5f602084013e6117ee565b606091505b505f81510361183457836040517f64a0ae9200000000000000000000000000000000000000000000000000000000815260040161182b91906125f7565b60405180910390fd5b805181602001fd5b63150b7a0260e01b7bffffffffffffffffffffffffffffffffffffffffffffffffffffffff1916817bffffffffffffffffffffffffffffffffffffffffffffffffffffffff1916146118c557836040517f64a0ae920000000000000000000000000000000000000000000000000000000081526004016118bc91906125f7565b60405180910390fd5b505b50505050565b60606040518060600160405280602181526020016133b860219139905090565b60605f60016118fb84612118565b0190505f8167ffffffffffffffff811115611919576119186128d5565b5b6040519080825280601f01601f19166020018201604052801561194b5781602001600182028036833780820191505090505b5090505f82602001820190505b6001156119ac578080600190039150507f3031323334353637383961626364656600000000000000000000000000000000600a86061a8153600a85816119a1576119a0612d7c565b5b0494505f8503611958575b819350505050919050565b5f7f01ffc9a7000000000000000000000000000000000000000000000000000000007bffffffffffffffffffffffffffffffffffffffffffffffffffffffff1916827bffffffffffffffffffffffffffffffffffffffffffffffffffffffff1916149050919050565b5f60025f8381526020019081526020015f205f9054906101000a900473ffffffffffffffffffffffffffffffffffffffff169050919050565b8080611a9157505f73ffffffffffffffffffffffffffffffffffffffff168273ffffffffffffffffffffffffffffffffffffffff1614155b15611bc3575f611aa084611045565b90505f73ffffffffffffffffffffffffffffffffffffffff168373ffffffffffffffffffffffffffffffffffffffff1614158015611b0a57508273ffffffffffffffffffffffffffffffffffffffff168173ffffffffffffffffffffffffffffffffffffffff1614155b8015611b1d5750611b1b8184610ed6565b155b15611b5f57826040517fa9fbf51f000000000000000000000000000000000000000000000000000000008152600401611b5691906125f7565b60405180910390fd5b8115611bc157838573ffffffffffffffffffffffffffffffffffffffff168273ffffffffffffffffffffffffffffffffffffffff167f8c5be1e5ebec7d5bd14f71427d1e84f3dd0314c0f7b2291e5b200ac8c7c3b92560405160405180910390a45b505b8360045f8581526020019081526020015f205f6101000a81548173ffffffffffffffffffffffffffffffffffffffff021916908373ffffffffffffffffffffffffffffffffffffffff16021790555050505050565b5f80611c2384611a20565b90505f73ffffffffffffffffffffffffffffffffffffffff168373ffffffffffffffffffffffffffffffffffffffff1614611c6457611c63818486612269565b5b5f73ffffffffffffffffffffffffffffffffffffffff168173ffffffffffffffffffffffffffffffffffffffff1614611cef57611ca35f855f80611a59565b600160035f8373ffffffffffffffffffffffffffffffffffffffff1673ffffffffffffffffffffffffffffffffffffffff1681526020019081526020015f205f82825403925050819055505b5f73ffffffffffffffffffffffffffffffffffffffff168573ffffffffffffffffffffffffffffffffffffffff1614611d6e57600160035f8773ffffffffffffffffffffffffffffffffffffffff1673ffffffffffffffffffffffffffffffffffffffff1681526020019081526020015f205f82825401925050819055505b8460025f8681526020019081526020015f205f6101000a81548173ffffffffffffffffffffffffffffffffffffffff021916908373ffffffffffffffffffffffffffffffffffffffff160217905550838573ffffffffffffffffffffffffffffffffffffffff168273ffffffffffffffffffffffffffffffffffffffff167fddf252ad1be2c89b69c2b068fc378daa952ba7f163c4a11628f55a4df523b3ef60405160405180910390a4809150509392505050565b60088054905060095f8381526020019081526020015f2081905550600881908060018154018082558091505060019003905f5260205f20015f909190919091505550565b5f611e7183610bac565b90505f60075f8481526020019081526020015f20549050818114611f48575f60065f8673ffffffffffffffffffffffffffffffffffffffff1673ffffffffffffffffffffffffffffffffffffffff1681526020019081526020015f205f8481526020019081526020015f205490508060065f8773ffffffffffffffffffffffffffffffffffffffff1673ffffffffffffffffffffffffffffffffffffffff1681526020019081526020015f205f8481526020019081526020015f20819055508160075f8381526020019081526020015f2081905550505b60075f8481526020019081526020015f205f905560065f8573ffffffffffffffffffffffffffffffffffffffff1673ffffffffffffffffffffffffffffffffffffffff1681526020019081526020015f205f8381526020019081526020015f205f905550505050565b5f6001600880549050611fc49190612bd0565b90505f60095f8481526020019081526020015f205490505f60088381548110611ff057611fef612e1a565b5b905f5260205f200154905080600883815481106120105761200f612e1a565b5b905f5260205f2001819055508160095f8381526020019081526020015f208190555060095f8581526020019081526020015f205f905560088054806120585761205761338a565b5b600190038181905f5260205f20015f9055905550505050565b5f600161207d84610bac565b6120879190612bd0565b90508160065f8573ffffffffffffffffffffffffffffffffffffffff1673ffffffffffffffffffffffffffffffffffffffff1681526020019081526020015f205f8381526020019081526020015f20819055508060075f8481526020019081526020015f2081905550505050565b5f6a636f6e736f6c652e6c6f6790508151602083015f808383865afa5050505050565b5f805f90507a184f03e93ff9f4daa797ed6e38ed64bf6a1f0100000000000000008310612174577a184f03e93ff9f4daa797ed6e38ed64bf6a1f010000000000000000838161216a57612169612d7c565b5b0492506040810190505b6d04ee2d6d415b85acef810000000083106121b1576d04ee2d6d415b85acef810000000083816121a7576121a6612d7c565b5b0492506020810190505b662386f26fc1000083106121e057662386f26fc1000083816121d6576121d5612d7c565b5b0492506010810190505b6305f5e1008310612209576305f5e10083816121ff576121fe612d7c565b5b0492506008810190505b612710831061222e57612710838161222457612223612d7c565b5b0492506004810190505b60648310612251576064838161224757612246612d7c565b5b0492506002810190505b600a8310612260576001810190505b80915050919050565b61227483838361232c565b612327575f73ffffffffffffffffffffffffffffffffffffffff168373ffffffffffffffffffffffffffffffffffffffff16036122e857806040517f7e2732890000000000000000000000000000000000000000000000000000000081526004016122df9190612687565b60405180910390fd5b81816040517f177e802f00000000000000000000000000000000000000000000000000000000815260040161231e929190612b49565b60405180910390fd5b505050565b5f8073ffffffffffffffffffffffffffffffffffffffff168373ffffffffffffffffffffffffffffffffffffffff16141580156123e357508273ffffffffffffffffffffffffffffffffffffffff168473ffffffffffffffffffffffffffffffffffffffff1614806123a457506123a38484610ed6565b5b806123e257508273ffffffffffffffffffffffffffffffffffffffff166123ca836110cb565b73ffffffffffffffffffffffffffffffffffffffff16145b5b90509392505050565b5f604051905090565b5f80fd5b5f80fd5b5f7fffffffff0000000000000000000000000000000000000000000000000000000082169050919050565b612431816123fd565b811461243b575f80fd5b50565b5f8135905061244c81612428565b92915050565b5f60208284031215612467576124666123f5565b5b5f6124748482850161243e565b91505092915050565b5f8115159050919050565b6124918161247d565b82525050565b5f6020820190506124aa5f830184612488565b92915050565b5f81519050919050565b5f82825260208201905092915050565b5f5b838110156124e75780820151818401526020810190506124cc565b5f8484015250505050565b5f601f19601f8301169050919050565b5f61250c826124b0565b61251681856124ba565b93506125268185602086016124ca565b61252f816124f2565b840191505092915050565b5f6020820190508181035f8301526125528184612502565b905092915050565b5f819050919050565b61256c8161255a565b8114612576575f80fd5b50565b5f8135905061258781612563565b92915050565b5f602082840312156125a2576125a16123f5565b5b5f6125af84828501612579565b91505092915050565b5f73ffffffffffffffffffffffffffffffffffffffff82169050919050565b5f6125e1826125b8565b9050919050565b6125f1816125d7565b82525050565b5f60208201905061260a5f8301846125e8565b92915050565b612619816125d7565b8114612623575f80fd5b50565b5f8135905061263481612610565b92915050565b5f80604083850312156126505761264f6123f5565b5b5f61265d85828601612626565b925050602061266e85828601612579565b9150509250929050565b6126818161255a565b82525050565b5f60208201905061269a5f830184612678565b92915050565b5f805f606084860312156126b7576126b66123f5565b5b5f6126c486828701612626565b93505060206126d586828701612626565b92505060406126e686828701612579565b9150509250925092565b5f8060408385031215612706576127056123f5565b5b5f61271385828601612579565b925050602061272485828601612579565b9150509250929050565b5f60208284031215612743576127426123f5565b5b5f61275084828501612626565b91505092915050565b5f819050919050565b61276b81612759565b82525050565b5f6020820190506127845f830184612762565b92915050565b5f80fd5b5f80fd5b5f80fd5b5f8083601f8401126127ab576127aa61278a565b5b8235905067ffffffffffffffff8111156127c8576127c761278e565b5b6020830191508360208202830111156127e4576127e3612792565b5b9250929050565b5f805f8060408587031215612803576128026123f5565b5b5f85013567ffffffffffffffff8111156128205761281f6123f9565b5b61282c87828801612796565b9450945050602085013567ffffffffffffffff81111561284f5761284e6123f9565b5b61285b87828801612796565b925092505092959194509250565b6128728161247d565b811461287c575f80fd5b50565b5f8135905061288d81612869565b92915050565b5f80604083850312156128a9576128a86123f5565b5b5f6128b685828601612626565b92505060206128c78582860161287f565b9150509250929050565b5f80fd5b7f4e487b71000000000000000000000000000000000000000000000000000000005f52604160045260245ffd5b61290b826124f2565b810181811067ffffffffffffffff8211171561292a576129296128d5565b5b80604052505050565b5f61293c6123ec565b90506129488282612902565b919050565b5f67ffffffffffffffff821115612967576129666128d5565b5b612970826124f2565b9050602081019050919050565b828183375f83830152505050565b5f61299d6129988461294d565b612933565b9050828152602081018484840111156129b9576129b86128d1565b5b6129c484828561297d565b509392505050565b5f82601f8301126129e0576129df61278a565b5b81356129f084826020860161298b565b91505092915050565b5f805f8060808587031215612a1157612a106123f5565b5b5f612a1e87828801612626565b9450506020612a2f87828801612626565b9350506040612a4087828801612579565b925050606085013567ffffffffffffffff811115612a6157612a606123f9565b5b612a6d878288016129cc565b91505092959194509250565b5f8060408385031215612a8f57612a8e6123f5565b5b5f612a9c85828601612626565b9250506020612aad85828601612626565b9150509250929050565b7f4e487b71000000000000000000000000000000000000000000000000000000005f52602260045260245ffd5b5f6002820490506001821680612afb57607f821691505b602082108103612b0e57612b0d612ab7565b5b50919050565b5f606082019050612b275f8301866125e8565b612b346020830185612678565b612b4160408301846125e8565b949350505050565b5f604082019050612b5c5f8301856125e8565b612b696020830184612678565b9392505050565b7f4e487b71000000000000000000000000000000000000000000000000000000005f52601160045260245ffd5b5f612ba78261255a565b9150612bb28361255a565b9250828201905080821115612bca57612bc9612b70565b5b92915050565b5f612bda8261255a565b9150612be58361255a565b9250828203905081811115612bfd57612bfc612b70565b5b92915050565b5f8160011c9050919050565b5f808291508390505b6001851115612c5857808604811115612c3457612c33612b70565b5b6001851615612c435780820291505b8081029050612c5185612c03565b9450612c18565b94509492505050565b5f82612c705760019050612d2b565b81612c7d575f9050612d2b565b8160018114612c935760028114612c9d57612ccc565b6001915050612d2b565b60ff841115612caf57612cae612b70565b5b8360020a915084821115612cc657612cc5612b70565b5b50612d2b565b5060208310610133831016604e8410600b8410161715612d015782820a905083811115612cfc57612cfb612b70565b5b612d2b565b612d0e8484846001612c0f565b92509050818404811115612d2557612d24612b70565b5b81810290505b9392505050565b5f612d3c8261255a565b9150612d478361255a565b9250612d747fffffffffffffffffffffffffffffffffffffffffffffffffffffffffffffffff8484612c61565b905092915050565b7f4e487b71000000000000000000000000000000000000000000000000000000005f52601260045260245ffd5b5f612db38261255a565b9150612dbe8361255a565b925082612dce57612dcd612d7c565b5b828204905092915050565b5f612de38261255a565b9150612dee8361255a565b9250828202612dfc8161255a565b91508282048414831517612e1357612e12612b70565b5b5092915050565b7f4e487b71000000000000000000000000000000000000000000000000000000005f52603260045260245ffd5b5f8160601b9050919050565b5f612e5d82612e47565b9050919050565b5f612e6e82612e53565b9050919050565b612e86612e81826125d7565b612e64565b82525050565b5f819050919050565b612ea6612ea182612759565b612e8c565b82525050565b5f819050919050565b612ec6612ec18261255a565b612eac565b82525050565b5f612ed78286612e75565b601482019150612ee78285612e95565b602082019150612ef78284612eb5565b602082019150819050949350505050565b7f646966666963756c7479000000000000000000000000000000000000000000005f82015250565b5f612f3c600a836124ba565b9150612f4782612f08565b602082019050919050565b5f6020820190508181035f830152612f6981612f30565b9050919050565b7f636f7374000000000000000000000000000000000000000000000000000000005f82015250565b5f612fa46004836124ba565b9150612faf82612f70565b602082019050919050565b5f6020820190508181035f830152612fd181612f98565b9050919050565b5f612fe28261255a565b91507fffffffffffffffffffffffffffffffffffffffffffffffffffffffffffffffff820361301457613013612b70565b5b600182019050919050565b5f61302a8285612e95565b60208201915061303a8284612eb5565b6020820191508190509392505050565b7f696e76616c6964000000000000000000000000000000000000000000000000005f82015250565b5f61307e6007836124ba565b91506130898261304a565b602082019050919050565b5f6020820190508181035f8301526130ab81613072565b9050919050565b5f81905092915050565b5f6130c6826124b0565b6130d081856130b2565b93506130e08185602086016124ca565b80840191505092915050565b5f6130f782856130bc565b915061310382846130bc565b91508190509392505050565b7f7769746864726177556e74696c5f6578697374000000000000000000000000005f82015250565b5f6131436013836124ba565b915061314e8261310f565b602082019050919050565b5f6020820190508181035f83015261317081613137565b9050919050565b7f6f776e65720000000000000000000000000000000000000000000000000000005f82015250565b5f6131ab6005836124ba565b91506131b682613177565b602082019050919050565b5f6020820190508181035f8301526131d88161319f565b9050919050565b7f77697468647261776e00000000000000000000000000000000000000000000005f82015250565b5f6132136009836124ba565b915061321e826131df565b602082019050919050565b5f6020820190508181035f83015261324081613207565b9050919050565b7f756e646572666c6f7700000000000000000000000000000000000000000000005f82015250565b5f61327b6009836124ba565b915061328682613247565b602082019050919050565b5f6020820190508181035f8301526132a88161326f565b9050919050565b5f81519050919050565b5f82825260208201905092915050565b5f6132d3826132af565b6132dd81856132b9565b93506132ed8185602086016124ca565b6132f6816124f2565b840191505092915050565b5f6080820190506133145f8301876125e8565b61332160208301866125e8565b61332e6040830185612678565b818103606083015261334081846132c9565b905095945050505050565b5f8151905061335981612428565b92915050565b5f60208284031215613374576133736123f5565b5b5f6133818482850161334b565b91505092915050565b7f4e487b71000000000000000000000000000000000000000000000000000000005f52603160045260245ffdfe68747470733a2f2f7777772e706f776e66746d657461646174612e636f6d2f742fa2646970667358221220e9f5b534c3fd44dfbccbfba331a31b0110e418b424854c1c723672f846cec00e64736f6c63430008170033",
  "immutableReferences": {},
  "source": "// SPDX-License-Identifier: MIT\npragma solidity ^0.8.20;\n\nimport 'truffle/console.sol';\nimport {ERC721Enumerable} from '@openzeppelin/contracts/token/ERC721/extensions/ERC721Enumerable.sol';\nimport {ERC721} from '@openzeppelin/contracts/token/ERC721/ERC721.sol';\n\ncontract POWNFT is ERC721Enumerable {\n    //      MINING VARS\n    uint BASE_COST = 0.000045 ether;\n    uint BASE_DIFFICULTY = uint(0xffffffffffffffffffffffffffffffffffffffffffffffffffffffffffffffff) / uint(300);\n    uint DIFFICULTY_RAMP = 3;\n\n    uint private lastDifficultyAdjustmentTime;\n    uint tokensMinedThisHour;\n    uint private constant TOKENS_PER_HOUR_TARGET = 100;\n\n    bytes32[] TOKENS; //Array of all tokens [hash,hash,...]\n    mapping(uint256 => uint256) WITHDRAWALS;\n\n    constructor() ERC721('POW NFT', 'POW') {\n        lastDifficultyAdjustmentTime = block.timestamp;\n        tokensMinedThisHour = 0;\n        mint(1, bytes32(0));\n    }\n\n    function _baseURI() internal pure override returns (string memory) {\n        return 'https://www.pownftmetadata.com/t/';\n    }\n\n    //      MINING EVENTS\n    event Mined(uint indexed _tokenId, bytes32 hash);\n    event Withdraw(uint indexed _tokenId, uint value);\n\n    //      MINING FUNCTIONS\n    // \n    function generationOf(uint _tokenId) private pure returns (uint generation) {\n        for (generation = 0; _tokenId > 0; generation++) {\n            _tokenId /= 2;\n        }\n\n        return generation - 1;\n    }\n\n    function getTokensMinedThisHour() public view returns (uint) {\n        return tokensMinedThisHour;\n    }\n\n    // token\n    function isValidToken(uint256 _tokenId) internal view returns (bool) {\n        return ownerOf(_tokenId) != address(0);\n    }\n\n    function hashOf(uint _tokenId) public view returns (bytes32) {\n        require(isValidToken(_tokenId), 'invalid');\n        return TOKENS[_tokenId - 1];\n    }\n\n    function mine(uint nonce) external payable {\n        uint256 tokenId = TOKENS.length + 1;\n        uint256 generation = generationOf(tokenId);\n        bool isIn1Hour = block.timestamp - lastDifficultyAdjustmentTime < 1 hours;\n\n        if (isIn1Hour) {\n            if (tokensMinedThisHour > TOKENS_PER_HOUR_TARGET) {\n                generation += 5;\n            }\n        }\n\n        uint256 difficulty = BASE_DIFFICULTY / (DIFFICULTY_RAMP ** generation);\n\n        if (generation > 13) {\n            //Token 16384\n            difficulty /= (tokenId - 2 ** 14 + 1);\n        }\n\n        uint cost = (2 ** generation - 1) * BASE_COST;\n\n        bytes32 hash = keccak256(abi.encodePacked(msg.sender, TOKENS[tokenId - 2], nonce));\n        require(hash < bytes32(difficulty), 'difficulty');\n        console.log(msg.value);\n        console.log(cost);\n        require(msg.value >= cost, 'cost');\n\n        // \n        if (isIn1Hour) {\n            tokensMinedThisHour++;\n        } else {\n            lastDifficultyAdjustmentTime = block.timestamp;\n            tokensMinedThisHour = 0;\n        }\n\n        mint(tokenId, keccak256(abi.encodePacked(hash, block.timestamp)));\n        emit Mined(tokenId, hash);\n    }\n\n    function mint(uint tokenId, bytes32 hash) private {\n        _update(msg.sender, tokenId, address(0));\n        TOKENS.push(hash);\n    }\n\n    function withdraw(uint _tokenId, uint _withdrawUntil) public {\n        payable(msg.sender).transfer(_withdraw(_tokenId, _withdrawUntil));\n    }\n\n    function _withdraw(uint _tokenId, uint _withdrawUntil) internal returns (uint) {\n        require(isValidToken(_withdrawUntil), 'withdrawUntil_exist');\n\n        require(ownerOf(_tokenId) == msg.sender, 'owner');\n        require(_withdrawUntil > WITHDRAWALS[_tokenId], 'withdrawn');\n\n        uint generation = generationOf(_tokenId);\n        uint firstPayable = 2 ** (generation + 1);\n\n        uint withdrawFrom = WITHDRAWALS[_tokenId];\n        if (withdrawFrom < _tokenId) {\n            withdrawFrom = _tokenId;\n\n            if (withdrawFrom < firstPayable) {\n                withdrawFrom = firstPayable - 1;\n            }\n        }\n\n        require(_withdrawUntil > withdrawFrom, 'underflow');\n\n        uint payout = BASE_COST * (_withdrawUntil - withdrawFrom);\n\n        WITHDRAWALS[_tokenId] = _withdrawUntil;\n\n        emit Withdraw(_tokenId, payout);\n\n        return payout;\n    }\n\n    function withdrawMultiple(uint[] calldata _tokenIds, uint[] calldata _withdrawUntil) public {\n        uint payout = 0;\n        for (uint i = 0; i < _tokenIds.length; i++) {\n            if (_withdrawUntil[i] > 0) {\n                payout += _withdraw(_tokenIds[i], _withdrawUntil[i]);\n            }\n        }\n        payable(msg.sender).transfer(payout);\n    }\n}\n",
  "sourcePath": "/Users/simonli/Desktop/nice try/SOL/POWNFTv3/contracts/POWNFT.sol",
  "compiler": {
    "name": "solc",
    "version": "0.8.23+commit.f704f362.Emscripten.clang"
  },
  "schemaVersion": "3.4.16",
  "updatedAt": "2024-01-16T06:23:49.903Z",
  "devdoc": {
    "errors": {
      "ERC721EnumerableForbiddenBatchMint()": [
        {
          "details": "Batch mint is not allowed."
        }
      ],
      "ERC721IncorrectOwner(address,uint256,address)": [
        {
          "details": "Indicates an error related to the ownership over a particular token. Used in transfers.",
          "params": {
            "owner": "Address of the current owner of a token.",
            "sender": "Address whose tokens are being transferred.",
            "tokenId": "Identifier number of a token."
          }
        }
      ],
      "ERC721InsufficientApproval(address,uint256)": [
        {
          "details": "Indicates a failure with the `operator`s approval. Used in transfers.",
          "params": {
            "operator": "Address that may be allowed to operate on tokens without being their owner.",
            "tokenId": "Identifier number of a token."
          }
        }
      ],
      "ERC721InvalidApprover(address)": [
        {
          "details": "Indicates a failure with the `approver` of a token to be approved. Used in approvals.",
          "params": {
            "approver": "Address initiating an approval operation."
          }
        }
      ],
      "ERC721InvalidOperator(address)": [
        {
          "details": "Indicates a failure with the `operator` to be approved. Used in approvals.",
          "params": {
            "operator": "Address that may be allowed to operate on tokens without being their owner."
          }
        }
      ],
      "ERC721InvalidOwner(address)": [
        {
          "details": "Indicates that an address can't be an owner. For example, `address(0)` is a forbidden owner in EIP-20. Used in balance queries.",
          "params": {
            "owner": "Address of the current owner of a token."
          }
        }
      ],
      "ERC721InvalidReceiver(address)": [
        {
          "details": "Indicates a failure with the token `receiver`. Used in transfers.",
          "params": {
            "receiver": "Address to which tokens are being transferred."
          }
        }
      ],
      "ERC721InvalidSender(address)": [
        {
          "details": "Indicates a failure with the token `sender`. Used in transfers.",
          "params": {
            "sender": "Address whose tokens are being transferred."
          }
        }
      ],
      "ERC721NonexistentToken(uint256)": [
        {
          "details": "Indicates a `tokenId` whose `owner` is the zero address.",
          "params": {
            "tokenId": "Identifier number of a token."
          }
        }
      ],
      "ERC721OutOfBoundsIndex(address,uint256)": [
        {
          "details": "An `owner`'s token query was out of bounds for `index`. NOTE: The owner being `address(0)` indicates a global out of bounds index."
        }
      ]
    },
    "events": {
      "Approval(address,address,uint256)": {
        "details": "Emitted when `owner` enables `approved` to manage the `tokenId` token."
      },
      "ApprovalForAll(address,address,bool)": {
        "details": "Emitted when `owner` enables or disables (`approved`) `operator` to manage all of its assets."
      },
      "Transfer(address,address,uint256)": {
        "details": "Emitted when `tokenId` token is transferred from `from` to `to`."
      }
    },
    "kind": "dev",
    "methods": {
      "approve(address,uint256)": {
        "details": "See {IERC721-approve}."
      },
      "balanceOf(address)": {
        "details": "See {IERC721-balanceOf}."
      },
      "getApproved(uint256)": {
        "details": "See {IERC721-getApproved}."
      },
      "isApprovedForAll(address,address)": {
        "details": "See {IERC721-isApprovedForAll}."
      },
      "name()": {
        "details": "See {IERC721Metadata-name}."
      },
      "ownerOf(uint256)": {
        "details": "See {IERC721-ownerOf}."
      },
      "safeTransferFrom(address,address,uint256)": {
        "details": "See {IERC721-safeTransferFrom}."
      },
      "safeTransferFrom(address,address,uint256,bytes)": {
        "details": "See {IERC721-safeTransferFrom}."
      },
      "setApprovalForAll(address,bool)": {
        "details": "See {IERC721-setApprovalForAll}."
      },
      "supportsInterface(bytes4)": {
        "details": "See {IERC165-supportsInterface}."
      },
      "symbol()": {
        "details": "See {IERC721Metadata-symbol}."
      },
      "tokenByIndex(uint256)": {
        "details": "See {IERC721Enumerable-tokenByIndex}."
      },
      "tokenOfOwnerByIndex(address,uint256)": {
        "details": "See {IERC721Enumerable-tokenOfOwnerByIndex}."
      },
      "tokenURI(uint256)": {
        "details": "See {IERC721Metadata-tokenURI}."
      },
      "totalSupply()": {
        "details": "See {IERC721Enumerable-totalSupply}."
      },
      "transferFrom(address,address,uint256)": {
        "details": "See {IERC721-transferFrom}."
      }
    },
    "version": 1
  },
  "userdoc": {
    "kind": "user",
    "methods": {},
    "version": 1
  }
}